{
  "_format": "hh-sol-artifact-1",
  "contractName": "CryptoDevsDAO",
  "sourceName": "contracts/CryptoDevsDAO.sol",
  "abi": [
    {
      "inputs": [
        {
          "internalType": "address",
          "name": "_nftMarketplace",
          "type": "address"
        },
        {
          "internalType": "address",
          "name": "_cryptoDevsNFT",
          "type": "address"
        }
      ],
      "stateMutability": "payable",
      "type": "constructor"
    },
    {
      "anonymous": false,
      "inputs": [
        {
          "indexed": true,
          "internalType": "address",
          "name": "previousOwner",
          "type": "address"
        },
        {
          "indexed": true,
          "internalType": "address",
          "name": "newOwner",
          "type": "address"
        }
      ],
      "name": "OwnershipTransferred",
      "type": "event"
    },
    {
      "stateMutability": "payable",
      "type": "fallback"
    },
    {
      "inputs": [
        {
          "internalType": "uint256",
          "name": "_tokenId",
          "type": "uint256"
        }
      ],
      "name": "checkNFTAvailable",
      "outputs": [
        {
          "internalType": "bool",
          "name": "",
          "type": "bool"
        }
      ],
      "stateMutability": "view",
      "type": "function"
    },
    {
      "inputs": [
        {
          "internalType": "uint256",
          "name": "_proposalIndex",
          "type": "uint256"
        },
        {
          "internalType": "uint256",
          "name": "_userTokenId",
          "type": "uint256"
        }
      ],
      "name": "checkVoted",
      "outputs": [
        {
          "internalType": "bool",
          "name": "",
          "type": "bool"
        }
      ],
      "stateMutability": "view",
      "type": "function"
    },
    {
      "inputs": [
        {
          "internalType": "uint256",
          "name": "_nftTokenId",
          "type": "uint256"
        }
      ],
      "name": "createProposal",
      "outputs": [
        {
          "internalType": "uint256",
          "name": "",
          "type": "uint256"
        }
      ],
      "stateMutability": "nonpayable",
      "type": "function"
    },
    {
      "inputs": [
        {
          "internalType": "uint256",
          "name": "proposalIndex",
          "type": "uint256"
        }
      ],
      "name": "executeProposal",
      "outputs": [],
      "stateMutability": "nonpayable",
      "type": "function"
    },
    {
      "inputs": [],
      "name": "numProposals",
      "outputs": [
        {
          "internalType": "uint256",
          "name": "",
          "type": "uint256"
        }
      ],
      "stateMutability": "view",
      "type": "function"
    },
    {
      "inputs": [],
      "name": "owner",
      "outputs": [
        {
          "internalType": "address",
          "name": "",
          "type": "address"
        }
      ],
      "stateMutability": "view",
      "type": "function"
    },
    {
      "inputs": [
        {
          "internalType": "uint256",
          "name": "",
          "type": "uint256"
        }
      ],
      "name": "proposals",
      "outputs": [
        {
          "internalType": "uint256",
          "name": "nftTokenId",
          "type": "uint256"
        },
        {
          "internalType": "uint256",
          "name": "deadline",
          "type": "uint256"
        },
        {
          "internalType": "uint256",
          "name": "yayVotes",
          "type": "uint256"
        },
        {
          "internalType": "uint256",
          "name": "nayVotes",
          "type": "uint256"
        },
        {
          "internalType": "bool",
          "name": "executed",
          "type": "bool"
        }
      ],
      "stateMutability": "view",
      "type": "function"
    },
    {
      "inputs": [],
      "name": "renounceOwnership",
      "outputs": [],
      "stateMutability": "nonpayable",
      "type": "function"
    },
    {
      "inputs": [
        {
          "internalType": "address",
          "name": "newOwner",
          "type": "address"
        }
      ],
      "name": "transferOwnership",
      "outputs": [],
      "stateMutability": "nonpayable",
      "type": "function"
    },
    {
      "inputs": [
        {
          "internalType": "uint256",
          "name": "proposalIndex",
          "type": "uint256"
        },
        {
          "internalType": "enum CryptoDevsDAO.Vote",
          "name": "vote",
          "type": "uint8"
        }
      ],
      "name": "voteOnProposal",
      "outputs": [],
      "stateMutability": "nonpayable",
      "type": "function"
    },
    {
      "inputs": [],
      "name": "withdrawEther",
      "outputs": [],
      "stateMutability": "nonpayable",
      "type": "function"
    },
    {
      "stateMutability": "payable",
      "type": "receive"
    }
  ],
  "bytecode": "0x608060405260405162001c1838038062001c188339818101604052810190620000299190620001b6565b620000496200003d620000d360201b60201c565b620000db60201b60201c565b81600360006101000a81548173ffffffffffffffffffffffffffffffffffffffff021916908373ffffffffffffffffffffffffffffffffffffffff16021790555080600460006101000a81548173ffffffffffffffffffffffffffffffffffffffff021916908373ffffffffffffffffffffffffffffffffffffffff160217905550505062000245565b600033905090565b60008060009054906101000a900473ffffffffffffffffffffffffffffffffffffffff169050816000806101000a81548173ffffffffffffffffffffffffffffffffffffffff021916908373ffffffffffffffffffffffffffffffffffffffff1602179055508173ffffffffffffffffffffffffffffffffffffffff168173ffffffffffffffffffffffffffffffffffffffff167f8be0079c531659141344cd1fd0a4f28419497f9722a3daafe3b4186f6b6457e060405160405180910390a35050565b600081519050620001b0816200022b565b92915050565b60008060408385031215620001ca57600080fd5b6000620001da858286016200019f565b9250506020620001ed858286016200019f565b9150509250929050565b600062000204826200020b565b9050919050565b600073ffffffffffffffffffffffffffffffffffffffff82169050919050565b6200023681620001f7565b81146200024257600080fd5b50565b6119c380620002556000396000f3fe6080604052600436106100a05760003560e01c80637362377b116100645780637362377b146101925780637a9ef4d9146101a95780638da5cb5b146101e6578063be1b5b6014610211578063efafb22e1461024e578063f2fde38b14610277576100a7565b8063013cf08b146100a95780630d61b519146100ea578063400e3949146101135780635a43dc001461013e578063715018a61461017b576100a7565b366100a757005b005b3480156100b557600080fd5b506100d060048036038101906100cb9190611175565b6102a0565b6040516100e19594939291906115bc565b60405180910390f35b3480156100f657600080fd5b50610111600480360381019061010c9190611175565b6102e3565b005b34801561011f57600080fd5b50610128610658565b60405161013591906115a1565b60405180910390f35b34801561014a57600080fd5b5061016560048036038101906101609190611175565b61065e565b60405161017291906115a1565b60405180910390f35b34801561018757600080fd5b5061019061089d565b005b34801561019e57600080fd5b506101a76108b1565b005b3480156101b557600080fd5b506101d060048036038101906101cb9190611203565b61097b565b6040516101dd9190611446565b60405180910390f35b3480156101f257600080fd5b506101fb6109c5565b6040516102089190611402565b60405180910390f35b34801561021d57600080fd5b5061023860048036038101906102339190611175565b6109ee565b6040516102459190611446565b60405180910390f35b34801561025a57600080fd5b50610275600480360381019061027091906111c7565b610aa2565b005b34801561028357600080fd5b5061029e60048036038101906102999190611123565b610eec565b005b60016020528060005260406000206000915090508060000154908060010154908060020154908060030154908060040160009054906101000a900460ff16905085565b6000600460009054906101000a900473ffffffffffffffffffffffffffffffffffffffff1673ffffffffffffffffffffffffffffffffffffffff166370a08231336040518263ffffffff1660e01b81526004016103409190611402565b60206040518083038186803b15801561035857600080fd5b505afa15801561036c573d6000803e3d6000fd5b505050506040513d601f19601f82011682018060405250810190610390919061119e565b116103d0576040517f08c379a00000000000000000000000000000000000000000000000000000000081526004016103c790611541565b60405180910390fd5b80426001600083815260200190815260200160002060010154111561042a576040517f08c379a000000000000000000000000000000000000000000000000000000000815260040161042190611461565b60405180910390fd5b600015156001600083815260200190815260200160002060040160009054906101000a900460ff16151514610494576040517f08c379a000000000000000000000000000000000000000000000000000000000815260040161048b906114a1565b60405180910390fd5b6000600160008481526020019081526020016000209050806003015481600201541115610636576000600360009054906101000a900473ffffffffffffffffffffffffffffffffffffffff1673ffffffffffffffffffffffffffffffffffffffff166398d5fdca6040518163ffffffff1660e01b815260040160206040518083038186803b15801561052557600080fd5b505afa158015610539573d6000803e3d6000fd5b505050506040513d601f19601f8201168201806040525081019061055d919061119e565b9050804710156105a2576040517f08c379a000000000000000000000000000000000000000000000000000000000815260040161059990611581565b60405180910390fd5b600360009054906101000a900473ffffffffffffffffffffffffffffffffffffffff1673ffffffffffffffffffffffffffffffffffffffff1663efef39a18284600001546040518363ffffffff1660e01b815260040161060291906115a1565b6000604051808303818588803b15801561061b57600080fd5b505af115801561062f573d6000803e3d6000fd5b5050505050505b60018160040160006101000a81548160ff021916908315150217905550505050565b60025481565b600080600460009054906101000a900473ffffffffffffffffffffffffffffffffffffffff1673ffffffffffffffffffffffffffffffffffffffff166370a08231336040518263ffffffff1660e01b81526004016106bc9190611402565b60206040518083038186803b1580156106d457600080fd5b505afa1580156106e8573d6000803e3d6000fd5b505050506040513d601f19601f8201168201806040525081019061070c919061119e565b1161074c576040517f08c379a000000000000000000000000000000000000000000000000000000000815260040161074390611541565b60405180910390fd5b600360009054906101000a900473ffffffffffffffffffffffffffffffffffffffff1673ffffffffffffffffffffffffffffffffffffffff166396e494e8836040518263ffffffff1660e01b81526004016107a791906115a1565b60206040518083038186803b1580156107bf57600080fd5b505afa1580156107d3573d6000803e3d6000fd5b505050506040513d601f19601f820116820180604052508101906107f7919061114c565b610836576040517f08c379a000000000000000000000000000000000000000000000000000000000815260040161082d90611501565b60405180910390fd5b6000600160006002548152602001908152602001600020905082816000018190555061038442610866919061162b565b816001018190555060026000815480929190610881906116fd565b919050555060016002546108959190611681565b915050919050565b6108a5610f70565b6108af6000610fee565b565b6108b9610f70565b60006108c36109c5565b9050600047905060008273ffffffffffffffffffffffffffffffffffffffff16826040516108f0906113ed565b60006040518083038185875af1925050503d806000811461092d576040519150601f19603f3d011682016040523d82523d6000602084013e610932565b606091505b5050905080610976576040517f08c379a000000000000000000000000000000000000000000000000000000000815260040161096d906114e1565b60405180910390fd5b505050565b600080600160008581526020019081526020016000209050600081600501600085815260200190815260200160002060009054906101000a900460ff169050809250505092915050565b60008060009054906101000a900473ffffffffffffffffffffffffffffffffffffffff16905090565b6000600360009054906101000a900473ffffffffffffffffffffffffffffffffffffffff1673ffffffffffffffffffffffffffffffffffffffff166396e494e8836040518263ffffffff1660e01b8152600401610a4b91906115a1565b60206040518083038186803b158015610a6357600080fd5b505afa158015610a77573d6000803e3d6000fd5b505050506040513d601f19601f82011682018060405250810190610a9b919061114c565b9050919050565b6000600460009054906101000a900473ffffffffffffffffffffffffffffffffffffffff1673ffffffffffffffffffffffffffffffffffffffff166370a08231336040518263ffffffff1660e01b8152600401610aff9190611402565b60206040518083038186803b158015610b1757600080fd5b505afa158015610b2b573d6000803e3d6000fd5b505050506040513d601f19601f82011682018060405250810190610b4f919061119e565b11610b8f576040517f08c379a0000000000000000000000000000000000000000000000000000000008152600401610b8690611541565b60405180910390fd5b8142600160008381526020019081526020016000206001015411610be8576040517f08c379a0000000000000000000000000000000000000000000000000000000008152600401610bdf906114c1565b60405180910390fd5b60006001600085815260200190815260200160002090506000600460009054906101000a900473ffffffffffffffffffffffffffffffffffffffff1673ffffffffffffffffffffffffffffffffffffffff166370a08231336040518263ffffffff1660e01b8152600401610c5c9190611402565b60206040518083038186803b158015610c7457600080fd5b505afa158015610c88573d6000803e3d6000fd5b505050506040513d601f19601f82011682018060405250810190610cac919061119e565b90506000805b82811015610deb576000600460009054906101000a900473ffffffffffffffffffffffffffffffffffffffff1673ffffffffffffffffffffffffffffffffffffffff16632f745c5933846040518363ffffffff1660e01b8152600401610d1992919061141d565b60206040518083038186803b158015610d3157600080fd5b505afa158015610d45573d6000803e3d6000fd5b505050506040513d601f19601f82011682018060405250810190610d69919061119e565b90506000151585600501600083815260200190815260200160002060009054906101000a900460ff1615151415610dd7578280610da5906116fd565b935050600185600501600083815260200190815260200160002060006101000a81548160ff0219169083151502179055505b508080610de3906116fd565b915050610cb2565b5060008111610e2f576040517f08c379a0000000000000000000000000000000000000000000000000000000008152600401610e2690611521565b60405180910390fd5b60006001811115610e69577f4e487b7100000000000000000000000000000000000000000000000000000000600052602160045260246000fd5b856001811115610ea2577f4e487b7100000000000000000000000000000000000000000000000000000000600052602160045260246000fd5b1415610ec85780836002016000828254610ebc919061162b565b92505081905550610ee4565b80836003016000828254610edc919061162b565b925050819055505b505050505050565b610ef4610f70565b600073ffffffffffffffffffffffffffffffffffffffff168173ffffffffffffffffffffffffffffffffffffffff161415610f64576040517f08c379a0000000000000000000000000000000000000000000000000000000008152600401610f5b90611481565b60405180910390fd5b610f6d81610fee565b50565b610f786110b2565b73ffffffffffffffffffffffffffffffffffffffff16610f966109c5565b73ffffffffffffffffffffffffffffffffffffffff1614610fec576040517f08c379a0000000000000000000000000000000000000000000000000000000008152600401610fe390611561565b60405180910390fd5b565b60008060009054906101000a900473ffffffffffffffffffffffffffffffffffffffff169050816000806101000a81548173ffffffffffffffffffffffffffffffffffffffff021916908373ffffffffffffffffffffffffffffffffffffffff1602179055508173ffffffffffffffffffffffffffffffffffffffff168173ffffffffffffffffffffffffffffffffffffffff167f8be0079c531659141344cd1fd0a4f28419497f9722a3daafe3b4186f6b6457e060405160405180910390a35050565b600033905090565b6000813590506110c981611938565b92915050565b6000815190506110de8161194f565b92915050565b6000813590506110f381611966565b92915050565b60008135905061110881611976565b92915050565b60008151905061111d81611976565b92915050565b60006020828403121561113557600080fd5b6000611143848285016110ba565b91505092915050565b60006020828403121561115e57600080fd5b600061116c848285016110cf565b91505092915050565b60006020828403121561118757600080fd5b6000611195848285016110f9565b91505092915050565b6000602082840312156111b057600080fd5b60006111be8482850161110e565b91505092915050565b600080604083850312156111da57600080fd5b60006111e8858286016110f9565b92505060206111f9858286016110e4565b9150509250929050565b6000806040838503121561121657600080fd5b6000611224858286016110f9565b9250506020611235858286016110f9565b9150509250929050565b611248816116b5565b82525050565b611257816116c7565b82525050565b600061126a60158361161a565b915061127582611775565b602082019050919050565b600061128d60268361161a565b91506112988261179e565b604082019050919050565b60006112b060198361161a565b91506112bb826117ed565b602082019050919050565b60006112d360118361161a565b91506112de82611816565b602082019050919050565b60006112f660148361161a565b91506113018261183f565b602082019050919050565b600061131960108361161a565b915061132482611868565b602082019050919050565b600061133c600d8361161a565b915061134782611891565b602082019050919050565b600061135f60108361161a565b915061136a826118ba565b602082019050919050565b600061138260208361161a565b915061138d826118e3565b602082019050919050565b60006113a560008361160f565b91506113b08261190c565b600082019050919050565b60006113c860108361161a565b91506113d38261190f565b602082019050919050565b6113e7816116f3565b82525050565b60006113f882611398565b9150819050919050565b6000602082019050611417600083018461123f565b92915050565b6000604082019050611432600083018561123f565b61143f60208301846113de565b9392505050565b600060208201905061145b600083018461124e565b92915050565b6000602082019050818103600083015261147a8161125d565b9050919050565b6000602082019050818103600083015261149a81611280565b9050919050565b600060208201905081810360008301526114ba816112a3565b9050919050565b600060208201905081810360008301526114da816112c6565b9050919050565b600060208201905081810360008301526114fa816112e9565b9050919050565b6000602082019050818103600083015261151a8161130c565b9050919050565b6000602082019050818103600083015261153a8161132f565b9050919050565b6000602082019050818103600083015261155a81611352565b9050919050565b6000602082019050818103600083015261157a81611375565b9050919050565b6000602082019050818103600083015261159a816113bb565b9050919050565b60006020820190506115b660008301846113de565b92915050565b600060a0820190506115d160008301886113de565b6115de60208301876113de565b6115eb60408301866113de565b6115f860608301856113de565b611605608083018461124e565b9695505050505050565b600081905092915050565b600082825260208201905092915050565b6000611636826116f3565b9150611641836116f3565b9250827fffffffffffffffffffffffffffffffffffffffffffffffffffffffffffffffff0382111561167657611675611746565b5b828201905092915050565b600061168c826116f3565b9150611697836116f3565b9250828210156116aa576116a9611746565b5b828203905092915050565b60006116c0826116d3565b9050919050565b60008115159050919050565b600073ffffffffffffffffffffffffffffffffffffffff82169050919050565b6000819050919050565b6000611708826116f3565b91507fffffffffffffffffffffffffffffffffffffffffffffffffffffffffffffffff82141561173b5761173a611746565b5b600182019050919050565b7f4e487b7100000000000000000000000000000000000000000000000000000000600052601160045260246000fd5b7f444541444c494e455f4e4f545f45584345454445440000000000000000000000600082015250565b7f4f776e61626c653a206e6577206f776e657220697320746865207a65726f206160008201527f6464726573730000000000000000000000000000000000000000000000000000602082015250565b7f50524f504f53414c5f414c52454144595f455845435554454400000000000000600082015250565b7f444541444c494e455f4558434545444544000000000000000000000000000000600082015250565b7f4661696c656420746f2073656e64204574686572000000000000000000000000600082015250565b7f4e46545f4e4f545f464f525f53414c4500000000000000000000000000000000600082015250565b7f414c52454144595f564f54454400000000000000000000000000000000000000600082015250565b7f4e4f545f415f44414f5f4d454d42455200000000000000000000000000000000600082015250565b7f4f776e61626c653a2063616c6c6572206973206e6f7420746865206f776e6572600082015250565b50565b7f4e4f545f454e4f5547485f46554e445300000000000000000000000000000000600082015250565b611941816116b5565b811461194c57600080fd5b50565b611958816116c7565b811461196357600080fd5b50565b6002811061197357600080fd5b50565b61197f816116f3565b811461198a57600080fd5b5056fea264697066735822122096381c3fde146220708083a688a1d4ee872dad099fa7d1a5afa7db8c501516ab64736f6c63430008040033",
  "linkReferences": {},
  "deployedLinkReferences": {}
}